:100000000C942A000C943F000C943F000C943F0089
:100010000C943F000C943F000C943F000C943F0064
:100020000C943F000C943F000C943F000C943F0054
:100030000C943F000C943F000C943F000C943F0044
:100040000C943F000C943F000C943F000C943F0034
:100050000C943F0011241FBECFE5D8E0DEBFCDBF1A
:1000600010E0A0E6B0E0E0EBF2E002C005900D92F7
:10007000A239B107D9F70E94EE000C9456010C94F6
:10008000000088B3886088BB83ED90E30197F1F7A7
:1000900000C0000088B3877F88BB08958AB38F7043
:1000A0008ABB88B3846088BB88B38D7F88BB0E947D
:1000B00041008AB3806F8ABB88B38B7F88BB089569
:1000C000CF93C82F0E944E00CBBB88B3897F88BBDB
:1000D00089EF90E00197F1F700C000000E94410015
:1000E000CF910895CF93DF93C82FD62F813031F46D
:1000F000603120F480E8860F0E946000C23031F445
:10010000D03120F480EC8D0F0E946000DF91CF9100
:10011000089581E00E946000089587E893E10197C7
:10012000F1F700C0000087B38E6087BB88B3817F82
:1001300088BB8FEF8ABB85EA9EE00197F1F700C08C
:1001400000000E94890088E30E94600086E00E940F
:10015000600080E80E9460008FE00E9460000895C7
:10016000CF93C82F0E944E00CBBB88B38B7F88BB38
:1001700088B3826088BB89EF90E00197F1F700C0F7
:1001800000000E944100CF9108950F931F93CF93D9
:10019000DF938C01C0E0D0E018C021960F5F1F4FA5
:1001A0000E94B000C031D10529F460E082E00E94D5
:1001B00072000BC0C032D10541F40E94890060E09A
:1001C00081E00E947200C0E0D0E0F80180818111DE
:1001D000E4CFDF91CF911F910F9108950E948D0080
:1001E0000E94890080E690E00E94C5002FE382E42F
:1001F0009FE0215080409040E1F700C000000E9445
:1002000089000E9423018AE690E00E94C5002FE346
:1002100082E49FE0215080409040E1F700C0000060
:100220000E94890085E790E00E9449018AE890E0F9
:100230000E94C50060E082E00E9472000E944501B9
:100240000E94B000FBCF8BB18D7F8BB983E389B95E
:100250008AB180618AB98AB188608AB980B58F7E97
:1002600080BD80B5806280BD80B5886080BD80B56E
:100270008D7F80BD80B58B7F80BD8AB18B7F8AB931
:1002800008955D9BFECF8CB908955F9BFECF8CB126
:100290000895CF93DF93EC0103C00E9441012196A2
:1002A00088818111FACFDF91CF910895F894FFCF23
:1002B0004C43442020696E6974007561727420207B
:1002C000696E69740041484D4544207368616261FC
:1002D0006E206D6F68616D65640055415254205207
:0202E0005800C4
:00000001FF
