S00B00006176722E73726563D0
S11300000C9448000C9452000C9452000C9452002E
S11300100C9452000C9452000C9452000C94520014
S11300200C9452000C9452000C9452000C94520004
S11300300C9452000C9452000C9452000C945200F4
S11300400C9452000C9452000C9452000C945200E4
S11300500C9452000C9452000C9452000C945200D4
S11300600C9452000C9452000C9452000C945200C4
S11300700C9452000C9452000C9452000C945200B4
S11300800C9452000C9452000C9452000C945200A4
S113009011241FBECFEFCDBFDFE3DEBF0E948A0075
S11300A00C949E000C94000081B792B7806881BFC5
S11300B092BF81B792B7806481BF92BF81B792B774
S11300C0806281BF92BF0895E5E5F0E0808191816F
S11300D0816080839183808191818C60808391830E
S11300E0E4E5F0E0808191818F7B80839183EBE56F
S11300F0F0E080819181806280839183808191810D
S113010080648083918380819181806880839183DE
S1130110789408950E9454000E94640082B793B7B3
S11301208F7D82BF93BF82B793B78F7B82BF93BF0C
S113013082B793B78F7782BF93BFF0CFF894FFCF86
S9030000FC
