S010000061746D65676133322E7372656340
S11300000C942A000C9434000C9434000C943400A6
S11300100C9434000C9434000C9434000C9434008C
S11300200C9434000C9434000C9434000C9434007C
S11300300C9434000C9434000C9434000C9434006C
S11300400C9434000C9434000C9434000C9434005C
S11300500C94340011241FBECFE5D8E0DEBFCDBF21
S11300600E9436000C9490000C940000CF93DF9310
S113007000D000D0CDB7DEB78FEF8ABB84B38E7FBC
S113008084BB85B3816085BB9899FECF46C01C8232
S11300901B821AC02B813C8181E090E002C0880F52
S11300A0991F2A95E2F79BB3892B8BBB2FE986E82E
S11300B091E0215080409040E1F700C000008B8126
S11300C09C8101969C838B838B819C81099714F37B
S11300D088E090E09A8389831CC029813A8181E079
S11300E090E002C0880F991F2A95E2F780959095B9
S11300F09BB389238BBB2FE986E891E02150804094
S11301009040E1F700C0000089819A8101979A83A9
S1130110898389819A81992304F7989BB8CFB4CFB6
S1070120F894FFCF7D
S9030000FC
