:100000000C942A000C943F000C943F000C943F0089
:100010000C943F000C943F000C943F000C943F0064
:100020000C943F000C943F000C943F000C943F0054
:100030000C943F000C943F000C943F000C943F0044
:100040000C943F000C943F000C943F000C943F0034
:100050000C943F0011241FBECFE5D8E0DEBFCDBF1A
:1000600010E0A0E6B0E0E4EAF3E002C005900D92F3
:10007000A238B107D9F70E949B010C94D0010C94CF
:10008000000081B38E7F81BB81B3806F81BB8FEF16
:1000900082BB089560E070E07BC082B3806F82BB5A
:1000A00022B3FB01EE0FFF1FE05AFF4F81E090E00B
:1000B000008002C0880F991F0A94E2F7809582237E
:1000C00082BB40E050E05EC080B3FA01EE0FFF1F3C
:1000D000E859FF4F208190E0022E02C09595879548
:1000E0000A94E2F780FD4CC080B390E0022E02C07B
:1000F000959587950A94E2F780FFF6CF61307105F8
:10010000C9F024F46115710541F03AC062307105FF
:10011000F1F06330710541F133C041155105F1F142
:1001200041305105E9F142305105E1F143305105CB
:1001300039F53AC041155105C9F141305105C1F1B8
:1001400042305105B9F143305105D1F435C0411564
:100150005105A1F14130510599F14230510591F11C
:100160004330510569F430C04115510579F14130F2
:10017000510571F14230510569F14330510561F18A
:100180004F5F5F4F443051050CF49ECF6F5F7F4F40
:10019000643071050CF481CF8EE4089587E30895EF
:1001A00084E3089581E3089581E2089588E3089542
:1001B00085E3089582E3089580E3089589E308952F
:1001C00086E3089583E308958DE308958FE208950B
:1001D0008AE208958DE208958BE2089588B38860DD
:1001E00088BB83ED90E30197F1F700C0000088B36E
:1001F000877F88BB08958AB38F708ABB88B3846079
:1002000088BB88B38D7F88BB0E94EE008AB3806F65
:100210008ABB88B38B7F88BB0895CF93C82F0E9479
:10022000FB00CBBB88B3897F88BB89EF90E0019747
:10023000F1F700C000000E94EE00CF910895CF9327
:10024000DF93C82FD62F813031F4603120F480E85D
:10025000860F0E940D01C23031F4D03120F480ECC1
:100260008D0F0E940D01DF91CF91089581E00E94D2
:100270000D01089587E893E10197F1F700C00000B0
:1002800087B38E6087BB88B3817F88BB8FEF8ABBC3
:1002900085EA9EE00197F1F700C000000E94360158
:1002A00088E30E940D0186E00E940D0180E80E9413
:1002B0000D018FE00E940D010895CF93C82F0E9479
:1002C000FB00CBBB88B38B7F88BB88B3826088BBC5
:1002D00089EF90E00197F1F700C000000E94EE0066
:1002E000CF9108950F931F93CF93DF938C01C0E0BC
:1002F000D0E018C021960F5F1F4F0E945D01C031F2
:10030000D10529F460E082E00E941F010BC0C032D9
:10031000D10541F40E94360160E081E00E941F0196
:10032000C0E0D0E0F80180818111E4CFDF91CF916E
:100330001F910F9108950E943A010E94410080E7A9
:1003400090E00E9472012FEB84ED91E021508040FB
:100350009040E1F700C000000E9436010E944A0070
:10036000C82F813219F08E34C9F303C00E943601C0
:10037000F5CF0031110529F460E082E00E941F01F1
:1003800009C00032110531F40E94360160E081E0BD
:100390000E941F010F5F1F4F8C2F0E945D01DECF57
:0403A000F894FFCFFF
:1003A400040005000600070000000100020003002D
:1003B4002020202A2A2A77656C636F6D2A2A2A2036
:0203C400000037
:00000001FF
