:020000040800F2
:10000000002800200D0200085D0200085D020008C3
:100010005D0200085D0200085D02000800000000AB
:100020000000000000000000000000005D02000869
:100030005D020008000000005D0200085D0200088B
:100040005D0200085D0200085D0200085D02000814
:100050005D0200085D020008E90500080D060008C1
:100060003106000855060008790600085D02000800
:100070005D0200085D0200085D0200085D020008E4
:100080005D0200085D0200085D0200085D020008D4
:100090005D0200085D0200085D0200089D06000880
:1000A0005D0200085D0200085D0200085D020008B4
:1000B0005D0200085D0200085D0200085D020008A4
:1000C0005D0200085D0200085D020008E90A000800
:1000D000A90B0008690C00087D0C0008910C0008B1
:1000E000450700085D020008000000005D020008EE
:1000F0005D0200085D0200085D0200085D02000864
:100100005D0200085D0200085D0200085D02000853
:100110005D0200085D0200085D0200085D02000843
:100120005D0200085D0200085D0200085D02000833
:1001300010B5054C237833B9044B13B10448AFF321
:1001400000800123237010BD00000020000000008B
:10015000EC0C000808B5034B1BB103490348AFF38F
:10016000008008BD0000000004000020EC0C000826
:1001700080B400AF034B01221A6000BFBD4680BCB3
:10018000704700BF1C00002080B400AF0A4B9B6981
:10019000094A43F004039361074B9B69064A43F005
:1001A00008039361044B9B69034A43F00103936185
:1001B00000BFBD4680BC70470010024080B588B0CB
:1001C00000AFFFF7E1FF0E4A07F10C0307CA83E80F
:1001D000070000233B760B4BFB6101237B7607F185
:1001E0000C03184600F0F4F9074B01221A60064B85
:1001F0001B68002BFBD0044B00221A60F7E700BFFE
:10020000040D0008710100081C0000200D488546FF
:10021000AFF300800C480D490D4A002302E0D4588A
:10022000C4500433C4188C42F9D30A4A0A4C002340
:1002300001E013600432A242FBD300F033FDFFF76C
:10024000BDFFFEE700280020000000200000002085
:10025000180D00080000002070000020FEE70000DC
:1002600080B483B000AF0346FB80FB880F2B54D8CB
:1002700001A252F823F000BFB9020008C70200082B
:10028000D5020008E3020008F1020008FF0200089E
:10029000FF020008FF020008FF020008FF0200083A
:1002A0000D0300080D0300080D0300080D030008EE
:1002B0000D0300080D0300081A4B1B68194A43F090
:1002C0004003136029E0174B1B68164A43F0800374
:1002D000136022E0134B1B68124A43F480731360CF
:1002E0001BE0104B1B680F4A43F40073136014E0CB
:1002F0000C4B1B680B4A43F4806313600DE0094B01
:100300001B68084A43F40003136006E0064B1B68B1
:10031000054A43F48073136000BF00BF0C37BD462D
:1003200080BC704700E100E004E100E080B483B0ED
:1003300000AF0346FB80FB880F2B54D801A252F874
:1003400023F000BF8503000893030008A103000801
:10035000AF030008BD030008CB030008CB0300086F
:10036000CB030008CB030008CB030008D903000827
:10037000D9030008D9030008D9030008D9030008ED
:10038000D90300081A4B1B68194A43F04003136055
:1003900029E0174B1B68164A43F08003136022E0E4
:1003A000134B1B68124A43F4807313601BE0104B1D
:1003B0001B680F4A43F40073136014E00C4B1B6876
:1003C0000B4A43F4806313600DE0094B1B68084A35
:1003D00043F40003136006E0064B1B68054A43F430
:1003E0008073136000BF00BF0C37BD4680BC7047F0
:1003F00080E100E084E100E080B584B000AF786087
:100400007B681B893B810123BB727B685B6807F1BA
:1004100008021146184600F0AFFA7B681B889B085B
:100420009BB2FB737B681B88DBB203F00303DBB278
:100430009B00BB735F4AFB7B023352F82320BB7BDC
:100440000F2101FA03F3DB4318465A49FB7B0240B4
:10045000023341F82320574AFB7B023352F8232012
:100460007B685B6854498B4216D07B685B68534954
:100470008B420FD07B685B6851498B4208D07B6808
:100480005B6850498B4201D1032306E0002304E05E
:10049000022302E0012300E00023B97B8B401846D1
:1004A0004449FB7B0243023341F82320464B9B68BF
:1004B0007A681288114601228A40D2431146424A84
:1004C0000B409360404BDB687A681288114601222A
:1004D0008A40D24311463C4A0B40D3607B681B7B69
:1004E000002B0BD1384B9B687A6812881146012289
:1004F0008A401146344A0B43936029E07B681B7B9A
:10050000012B0BD1304BDB687A681288114601222F
:100510008A4011462C4A0B43D36019E07B681B7B51
:10052000022B15D1284B9B687A681288114601224C
:100530008A401146244A0B439360234BDB687A6858
:100540001288114601228A4011461F4A0B43D3608C
:100550007B681B8819467B681B691C4A42F821305E
:100560007B685B7B012B10D1174B1B687A68128864
:10057000114601228A401146134A0B4313607B68DF
:100580001B881846FFF76CFE10E00F4B1B687A685B
:100590001288114601228A40D24311460A4A0B4072
:1005A00013607B681B881846FFF7C0FE00BF10373A
:1005B000BD4680BD0000014000080140000C014024
:1005C00000100140001401400004014034000020EC
:1005D00080B582B000AF78607868FFF70DFF00BF8C
:1005E0000837BD4680BD000080B500AF054B5B6994
:1005F000044A43F001035361034B1B68984700BF53
:1006000080BD00BF000401403400002080B500AF71
:10061000054B5B69044A43F002035361034B5B687B
:10062000984700BF80BD00BF000401403400002097
:1006300080B500AF054B5B69044A43F00403536186
:10064000034B9B68984700BF80BD00BF000401407A
:100650003400002080B500AF054B5B69044A43F0CD
:1006600008035361034BDB68984700BF80BD00BFA0
:10067000000401403400002080B500AF054B5B69E9
:10068000044A43F010035361034B1B69984700BFB2
:1006900080BD00BF000401403400002080B500AFE1
:1006A000264B5B6903F02003002B08D0234B5B69CA
:1006B000224A43F020035361214B5B6998471F4B4B
:1006C0005B6903F04003002B08D01C4B5B691B4A9D
:1006D00043F0400353611A4B9B699847174B5B6982
:1006E00003F08003002B08D0144B5B69134A43F0DE
:1006F00080035361124BDB699847104B5B6903F42D
:100700008073002B08D00D4B5B690C4A43F4807357
:1007100053610B4B1B6A9847084B5B6903F40073EA
:10072000002B08D0054B5B69044A43F40073536106
:10073000034B5B6A984700BF80BD00BF00040140C7
:100740003400002080B500AF2D4B5B6903F480635B
:10075000002B08D02A4B5B69294A43F4806353611C
:10076000284B9B6A9847264B5B6903F40063002B78
:1007700008D0234B5B69224A43F400635361214B49
:10078000DB6A98471E4B5B6903F48053002B08D04B
:100790001B4B5B691A4A43F480535361194B1B6B23
:1007A0009847174B5B6903F40053002B08D0144B98
:1007B0005B69134A43F400535361124B5B6B9847D8
:1007C0000F4B5B6903F48043002B08D00C4B5B6933
:1007D0000B4A43F4804353610A4B9B6B9847084B89
:1007E0005B6903F40043002B08D0054B5B69044AA6
:1007F00043F400435361034BDB6B984700BF80BD5C
:10080000000401403400002080B483B000AF0346F0
:10081000FB80FB88B3F5004F00F0A580B3F5004FD7
:1008200000F3A380B3F5804F00F09B80B3F5804FB9
:1008300000F39B80B3F5005F00F09180B3F5005F9B
:1008400000F39380B3F5805F00F08780B3F5805F9D
:1008500000F38B80B3F5006F7DD0B3F5006F00F32C
:100860008480B3F5806F74D0B3F5806F7DDCB3F511
:10087000007F6CD0B3F5007F77DCB3F5807F64D068
:10088000B3F5807F71DC802B5DD0802B6DDC202B5D
:1008900048DC002B69DD013B1F2B66D801A252F812
:1008A00023F000BF2B0900082F0900086B0900087E
:1008B000330900086B0900086B0900086B09000880
:1008C000370900086B0900086B0900086B0900086C
:1008D0006B0900086B0900086B0900086B09000828
:1008E0003B0900086B0900086B0900086B09000848
:1008F0006B0900086B0900086B0900086B09000808
:100900006B0900086B0900086B0900086B090008F7
:100910006B0900086B0900086B0900086B090008E7
:100920003F090008402B0CD01FE000231FE00423E8
:100930001DE008231BE00C2319E0102317E014230B
:1009400015E0182313E01C2311E000230FE004231B
:100950000DE008230BE00C2309E0102307E014232B
:1009600005E0182303E01C2301E000BF0023184624
:100970000C37BD4680BC704790B585B000AF78603D
:1009800039600023BB600023FB733B681B88FF2B8F
:1009900001D87B6801E07B680433BB603B681B883F
:1009A0001846FFF731FF03461A460F239340DA43F8
:1009B000BB681B681A40BB681A603B689B78072BB2
:1009C0000BD03B689B78062B07D03B689B78052BA8
:1009D00003D03B689B78042B1CD13B689B78043B7D
:1009E0009B005AB23B68DB785BB213435BB2DBB26D
:1009F00003F00F03FB73FC7B3B681B881846FFF773
:100A000003FF034604FA03F2BB681B681A43BB6882
:100A10001A6056E03B689B78012B03D03B689B78BB
:100A2000002B15D13B689B789B00DBB203F00F03D2
:100A3000FB73FC7B3B681B881846FFF7E5FE03460B
:100A400004FA03F2BB681B681A43BB681A6038E0FB
:100A50003B689B78082B10D10023FB73FC7B3B6821
:100A60001B881846FFF7D0FE034604FA03F2BB6862
:100A70001B681A43BB681A6023E00823FB73FC7BE6
:100A80003B681B881846FFF7BFFE034604FA03F2D3
:100A9000BB681B681A43BB681A603B689B78022BD3
:100AA00007D17B68DB683A6812881A437B68DA6092
:100AB00007E07B68DB683A681288D2431A407B689B
:100AC000DA60FC7B3B681B881846FFF79DFE0346F7
:100AD00004FA03F2BB681B681A43BB681A6000BFC4
:100AE0001437BD4690BD000080B582B000AF2C4BDE
:100AF0009B6803F00103DAB23B7962F300033B71B8
:100B0000274B9B685B0803F00103DAB23B7962F381
:100B100041033B71224B9B689B0803F00103DAB24F
:100B20003B7962F382033B711D4B9B68DB0803F04A
:100B30000103DAB23B7962F3C3033B71184B9B6844
:100B40001B0903F00103DAB23B7962F304133B7132
:100B5000134B9B685B0903F00103DAB23B7962F344
:100B600045133B710E4B9B689B0903F00103DAB2FE
:100B70003B7962F386133B71094B9B68DB0903F0F9
:100B80000103DAB23B7962F3C7133B71054B1B6873
:100B90005B693879984700BF0837BD4680BD00BF04
:100BA000003001402000002080B582B000AF2C4B07
:100BB0009B6803F00103DAB23B7962F300033B71F7
:100BC000274B9B685B0803F00103DAB23B7962F3C1
:100BD00041033B71224B9B689B0803F00103DAB28F
:100BE0003B7962F382033B711D4B9B68DB0803F08A
:100BF0000103DAB23B7962F3C3033B71184B9B6884
:100C00001B0903F00103DAB23B7962F304133B7171
:100C1000134B9B685B0903F00103DAB23B7962F383
:100C200045133B710E4B9B689B0903F00103DAB23D
:100C30003B7962F386133B71094B9B68DB0903F038
:100C40000103DAB23B7962F3C7133B71054B5B6872
:100C50005B693879984700BF0837BD4680BD00BF43
:100C6000003800402000002080B500AF024B1B6818
:100C70001B69984700BF80BD2800002080B500AFE9
:100C8000024B5B681B69984700BF80BD28000020AD
:100C900080B500AF024B9B681B69984700BF80BDC1
:100CA0002800002070B500260C4D0D4C641BA410CC
:100CB000A64209D100F01AF800260A4D0A4C641B1E
:100CC000A410A64205D170BD55F8043B98470136E3
:100CD000EEE755F8043B98470136F2E7100D00089F
:100CE000100D0008100D0008140D0008F8B500BF25
:100CF000F8BC08BC9E467047F8B500BFF8BC08BCFD
:040D00009E46704754
:0C0D040009000000000C01400002170074
:040D10005501000881
:040D140031010008A1
:040000050800020DE0
:00000001FF
