:020000040800F2
:1000000000500020FD0100084902000849020008D4
:1000100049020008490200084902000800000000E7
:10002000000000000000000000000000DD010008EA
:1000300049020008000000004902000849020008C7
:100040004902000849020008490200084902000864
:1000500049020008490200084D0200087102000828
:1000600095020008B9020008DD02000849020008F4
:100070004902000849020008490200084902000834
:100080004902000849020008490200084902000824
:10009000490200084902000849020008010300085B
:1000A0004902000849020008490200084902000804
:1000B00049020008490200084902000849020008F4
:1000C0004902000849020008490200086D040008BE
:1000D0002D050008ED0500080106000815060008BA
:1000E000A9030008490200080000000049020008B6
:1000F00049020008490200084902000849020008B4
:1001000049020008490200084902000849020008A3
:100110004902000849020008490200084902000893
:100120004902000849020008490200084902000883
:1001300010B5054C237833B9044B13B10448AFF321
:1001400000800123237010BD00000020000000008B
:100150007006000808B5034B1BB103490348AFF311
:10016000008008BD000000000400002070060008A8
:1001700080B487B000AF78607B6818331B68023B9F
:100180001B78FB757B681B683B617B6804331B68CD
:10019000FB60FB7D032B14D0032B1ADC012B02D058
:1001A000022B07D015E03A69FB6813441A467B68B6
:1001B0001A600EE03A69FB68D31A1A467B681A6027
:1001C00007E03B69FA6802FB03F31A467B681A6092
:1001D00000BF00BF1C37BD4680BC704780B400AF75
:1001E0001EF0040F0CBFEFF30880EFF30980FFF758
:1001F000BFBF00BFBD4680BC704700000C488546AD
:10020000AFF300800B480C490C4A002302E0D4589D
:10021000C4500433C4188C42F9D3094A094C002352
:1002200001E013600432A242FBD300F0FDF9FEE7C7
:100230000050002000000020000000209006000870
:10024000000000206C000020FEE7000080B500AF39
:10025000054B5B69044A43F001035361034B1B6880
:10026000984700BF80BD00BF00040140300000205F
:1002700080B500AF054B5B69044A43F0020353614C
:10028000034B5B68984700BF80BD00BF000401407E
:100290003000002080B500AF054B5B69044A43F095
:1002A00004035361034B9B68984700BF80BD00BFA8
:1002B000000401403000002080B500AF054B5B69B1
:1002C000044A43F008035361034BDB68984700BFBF
:1002D00080BD00BF000401403000002080B500AFA9
:1002E000054B5B69044A43F010035361034B1B69E0
:1002F000984700BF80BD00BF0004014030000020CF
:1003000080B500AF264B5B6903F02003002B08D0BB
:10031000234B5B69224A43F020035361214B5B6905
:1003200098471F4B5B6903F04003002B08D01C4B20
:100330005B691B4A43F0400353611A4B9B69984722
:10034000174B5B6903F08003002B08D0144B5B69EB
:10035000134A43F080035361124BDB699847104BFB
:100360005B6903F48073002B08D00D4B5B690C4A6A
:1003700043F4807353610B4B1B6A9847084B5B69CE
:1003800003F40073002B08D0054B5B69044A43F467
:1003900000735361034B5B6A984700BF80BD00BF89
:1003A000000401403000002080B500AF2D4B5B6998
:1003B00003F48063002B08D02A4B5B69294A43F47D
:1003C00080635361284B9B6A9847264B5B6903F413
:1003D0000063002B08D0234B5B69224A43F400637F
:1003E0005361214BDB6A98471E4B5B6903F48053D2
:1003F000002B08D01B4B5B691A4A43F480535361AE
:10040000194B1B6B9847174B5B6903F40053002B88
:1004100008D0144B5B69134A43F400535361124BE9
:100420005B6B98470F4B5B6903F48043002B08D04C
:100430000C4B5B690B4A43F4804353610A4B9B6B43
:100440009847084B5B6903F40043002B08D0054B29
:100450005B69044A43F400435361034BDB6B9847E9
:1004600000BF80BD000401403000002080B582B094
:1004700000AF2C4B9B6803F00103DAB23B7962F3C7
:1004800000033B71274B9B685B0803F00103DAB262
:100490003B7962F341033B71224B9B689B0803F05D
:1004A0000103DAB23B7962F382033B711D4B9B6817
:1004B000DB0803F00103DAB23B7962F3C3033B715B
:1004C000184B9B681B0903F00103DAB23B7962F316
:1004D00004133B71134B9B685B0903F00103DAB211
:1004E0003B7962F345133B710E4B9B689B0903F00C
:1004F0000103DAB23B7962F386133B71094B9B68C7
:10050000DB0903F00103DAB23B7962F3C7133B71F5
:10051000054B1B685B693879984700BF0837BD46B3
:1005200080BD00BF003001401C00002080B582B0BB
:1005300000AF2C4B9B6803F00103DAB23B7962F306
:1005400000033B71274B9B685B0803F00103DAB2A1
:100550003B7962F341033B71224B9B689B0803F09C
:100560000103DAB23B7962F382033B711D4B9B6856
:10057000DB0803F00103DAB23B7962F3C3033B719A
:10058000184B9B681B0903F00103DAB23B7962F355
:1005900004133B71134B9B685B0903F00103DAB250
:1005A0003B7962F345133B710E4B9B689B0903F04B
:1005B0000103DAB23B7962F386133B71094B9B6806
:1005C000DB0903F00103DAB23B7962F3C7133B7135
:1005D000054B5B685B693879984700BF0837BD46B3
:1005E00080BD00BF003800401C00002080B500AF77
:1005F000024B1B681B69984700BF80BD2400002088
:1006000080B500AF024B5B681B69984700BF80BD97
:100610002400002080B500AF024B9B681B699847FF
:1006200000BF80BD2400002070B500260C4D0D4C8D
:10063000641BA410A64209D100F01AF800260A4D46
:100640000A4C641BA410A64205D170BD55F8043BAA
:1006500098470136EEE755F8043B98470136F2E734
:100660008806000888060008880600088C0600082E
:10067000F8B500BFF8BC08BC9E467047F8B500BF8F
:08068000F8BC08BC9E4670475F
:040688005501000810
:04068C003101000830
:04000005080001FDF1
:00000001FF
