:100000000C942A000C9411020C9472020C943D0280
:100010000C9447000C9447000C9447000C94470044
:100020000C9447000C9447000C9447000C94470034
:100030000C9447000C9447000C9447000C94470024
:100040000C9447000C9447000C9447000C94470014
:100050000C94470011241FBECFE5D8E0DEBFCDBF12
:1000600010E0A0E6B0E0E2EEF5E002C005900D92EF
:10007000A036B107D9F720E0A0E6B0E001C01D929C
:10008000A036B207E1F70E940B010C94EF020C942A
:10009000000088B3886088BB83ED90E30197F1F797
:1000A00000C0000088B3877F88BB08958AB38F7033
:1000B0008ABB88B3846088BB88B38D7F88BB0E946D
:1000C00049008AB3806F8ABB88B38B7F88BB089551
:1000D000CF93C82F0E945600CBBB88B3897F88BBC3
:1000E00089EF90E00197F1F700C000000E944900FD
:1000F000CF91089581E00E946800089587E893E118
:100100000197F1F700C0000087B38E6087BB88B30A
:10011000817F88BB8FEF8ABB85EA9EE00197F1F76C
:1001200000C000000E947A0088E30E94680086E018
:100130000E94680080E80E9468008FE00E946800CA
:100140000895CF93C82F0E945600CBBB88B38B7FF6
:1001500088BB88B3826088BB89EF90E00197F1F794
:1001600000C000000E944900CF910895CF92DF9215
:10017000EF92FF920F931F93CF93DF93CDB7DEB72C
:100180002C970FB6F894DEBF0FBECDBF6B017C017C
:10019000672B682B692B19F480E30E94A10000E013
:1001A00010E016C0C701B6012AE030E040E050E0A0
:1001B0000E94CD02E1E0F0E0EC0FFD1FE00FF11F27
:1001C000605D6083C22ED32EE42EF52E0F5F1F4F8D
:1001D000C114D104E104F10429F70BC00150110945
:1001E000E1E0F0E0EC0FFD1FE00FF11F80810E94C5
:1001F000A1001016110694F32C960FB6F894DEBFEA
:100200000FBECDBFDF91CF911F910F91FF90EF9067
:10021000DF90CF9008950E947E000E949E0281E4AC
:100220000E94C002882319F081E40E94A100C0E06E
:10023000D0E011C0BE010D2E000C880B990B0E945E
:10024000B6002FE784E89EE1215080409040E1F71E
:1002500000C000002196CA30D10564F3E8CF4423E2
:10026000B9F1413009F06BC0813089F028F082305B
:10027000C9F0833011F108952AB381E090E002C003
:10028000880F991F6A95E2F7822B8ABB089527B3DE
:1002900081E090E002C0880F991F6A95E2F7822BF7
:1002A00087BB089524B381E090E002C0880F991FB6
:1002B0006A95E2F7822B84BB089521B381E090E038
:1002C00002C0880F991F6A95E2F7822B81BB0895BF
:1002D000813091F028F08230D9F0833029F10895EF
:1002E0002AB381E090E002C0880F991F6A95E2F777
:1002F000809582238ABB089527B381E090E002C0F5
:10030000880F991F6A95E2F78095822387BB08952D
:1003100024B381E090E002C0880F991F6A95E2F74C
:100320008095822384BB089521B381E090E002C0D0
:10033000880F991F6A95E2F78095822381BB089503
:100340004423B9F1413009F06BC0813089F028F0C5
:100350008230C9F0833011F108952BB381E090E031
:1003600002C0880F991F6A95E2F7822B8BBB089514
:1003700028B381E090E002C0880F991F6A95E2F7E8
:10038000822B88BB089525B381E090E002C0880FDE
:10039000991F6A95E2F7822B85BB089522B381E00D
:1003A00090E002C0880F991F6A95E2F7822B82BB0A
:1003B0000895813091F028F08230D9F0833029F10E
:1003C00008952BB381E090E002C0880F991F6A95D1
:1003D000E2F7809582238BBB089528B381E090E0FB
:1003E00002C0880F991F6A95E2F78095822388BB27
:1003F000089525B381E090E002C0880F991F6A95A7
:10040000E2F78095822385BB089522B381E090E0D6
:1004100002C0880F991F6A95E2F78095822382BBFC
:1004200008951F920F920FB60F9211242F933F93AE
:100430004F935F936F937F938F939F93AF93BF93EC
:10044000EF93FF934FEF64E080E00E942F0141E0C3
:1004500064E080E00E94A001FF91EF91BF91AF9115
:100460009F918F917F916F915F914F913F912F91CC
:100470000F900FBE0F901F9018951F920F920FB6FE
:100480000F9211242F933F934F935F936F937F931A
:100490008F939F93AF93BF93EF93FF9340E064E0FC
:1004A00080E00E94A0012FE986E891E02150804081
:1004B0009040E1F700C0000040E063E080E00E946F
:1004C000A001FF91EF91BF91AF919F918F917F918B
:1004D0006F915F914F913F912F910F900FBE0F90B1
:1004E0001F9018951F920F920FB60F9211242F9301
:1004F0003F934F935F936F937F938F939F93AF93AC
:10050000BF93EF93FF934FEF63E080E00E942F01D2
:1005100041E063E080E00E94A001FF91EF91BF9174
:10052000AF919F918F917F916F915F914F913F918B
:100530002F910F900FBE0F901F9018958BB18D7F4C
:100540008BB983E389B98AB180618AB98AB188603D
:100550008AB980B58F7E80BD80B5806280BD80B550
:10056000886080BD80B58D7F80BD80B58B7F80BD6C
:100570008AB18B7F8AB908955D9BFECF8CB90895AF
:100580009BB196FB222720F996FF05C08CB98CB150
:100590000E94BC0221E0822F0895A1E21A2EAA1B1C
:1005A000BB1BFD010DC0AA1FBB1FEE1FFF1FA21723
:1005B000B307E407F50720F0A21BB30BE40BF50B20
:1005C000661F771F881F991F1A9469F760957095A9
:1005D000809590959B01AC01BD01CF010895F894E1
:0205E000FFCF4B
:00000001FF
