:100000000C942A000C9434000C9434000C943400AA
:100010000C9434000C9434000C9434000C94340090
:100020000C9434000C9434000C9434000C94340080
:100030000C9434000C9434000C9434000C94340070
:100040000C9434000C9434000C9434000C94340060
:100050000C94340011241FBECFE5D8E0DEBFCDBF25
:100060000E94A3000C94A9000C94000088B388603F
:1000700088BB83ED90E30197F1F700C0000088B3DF
:10008000877F88BB08958AB38F708ABB88B38460EA
:1000900088BB88B38D7F88BB88B3877F88BB83ED9F
:1000A00090E30197F1F700C0000088B3887088BB27
:1000B0008AB3807F8ABB88B38B7F88BB0895CF9338
:1000C000C82F0E944300CBBB88B3897F88BB89EFD0
:1000D00090E00197F1F700C000000E943600CF9138
:1000E0000895CF93C82F0E944300CBBB88B38B7F6A
:1000F00088BB88B3826088BB89EF90E00197F1F7F5
:1001000000C000000E943600CF91089587E893E177
:100110000197F1F700C000000E9443008AB38E608F
:100120008ABB88B3877F88BB8FEF8ABB88E30E9436
:100130005F0086E00E945F0080E80E945F008FE021
:100140000E945F0008950E94860081E40E94710071
:06015000FFCFF894FFCF81
:00000001FF
