:100000000C943A000C94E0030C9441040C940C04FE
:100010000C9457000C9457000C9457000C94570004
:100020000C9457000C9457000C9457000C945700F4
:100030000C9457000C9457000C9457000C945700E4
:100040000C9457000C9457000C9457000C945700D4
:100050000C94570059026002680270027802800214
:1000600088029002C402C902CE02D302D802DD0285
:10007000E202E70211241FBECFE5D8E0DEBFCDBF0C
:1000800010E0A0E6B0E0E0EAFBE002C005900D92CF
:10009000AC36B107D9F720E0ACE6B0E001C01D9264
:1000A000A438B207E1F70E94F3010C94CE050C943A
:1000B0000000CF93DF9300D000D01F92CDB7DEB702
:1000C00080E28D831A8286E08B8319821C82BE01B6
:1000D0006F5F7F4F87E00E944D020F900F900F904F
:1000E0000F900F90DF91CF910895CF93DF9300D0C1
:1000F00000D01F92CDB7DEB71D821A8286E08B83B7
:10010000198287B1806487B91C82BE016F5F7F4FFF
:1001100087E00E94B3020F900F900F900F900F9006
:10012000DF91CF910895CF93DF9300D000D01F923D
:10013000CDB7DEB780E28D831A8286E08B83198289
:100140001C82BE016F5F7F4F80E00E944D0240E045
:1001500060E080E00E94FE020F900F900F900F90E1
:100160000F90DF91CF910895CF93DF9300D000D00F
:100170001F92CDB7DEB780E28D831A8286E08B8333
:10018000198287B1806487B91C82BE016F5F7F4F7F
:1001900080E00E94B302BC0180E090E00E949C04D9
:1001A00020E030E44CE955E40E942A0520E030E0EC
:1001B00040E85AE30E942A050E946D049B01ADECC1
:1001C000BCEC0E94BF059695879596958795969568
:1001D00087950F900F900F900F900F90DF91CF9118
:1001E000089585B3846085BB83ED90E30197F1F7B3
:1001F00000C0000085B38B7F85BB089581B38F70ED
:1002000081BB85B3826085BB85B38E7F85BB0E9431
:10021000F10081B3806F81BB85B38D7F85BB08956D
:10022000CF93C82F0E94FE00C2BB85B38C7F85BBD5
:1002300089EF90E00197F1F700C000000E94F10003
:10024000CF910895CF93DF93C82FD62F813031F40B
:10025000603120F480E8860F0E941001C23031F432
:10026000D03120F480EC8D0F0E941001DF91CF91EE
:10027000089581E00E941001089587E893E10197B5
:10028000F1F700C0000084B3876084BB85B3887F2A
:1002900085BB8FEF81BB85EA9EE00197F1F700C037
:1002A00000000E94390188E30E94100186E00E944C
:1002B000100180E80E9410018FE00E941001089553
:1002C000CF93C82F0E94FE00C2BB85B38D7F85BB34
:1002D00085B3816085BB89EF90E00197F1F700C09D
:1002E00000000E94F100CF9108950F931F93CF93C8
:1002F000DF938C01C0E0D0E018C021960F5F1F4F44
:100300000E946001C031D10529F460E082E00E94C2
:1003100022010BC0C032D10541F40E94390160E0D6
:1003200081E00E942201C0E0D0E0F80180818111CB
:10033000E4CFDF91CF911F910F910895CF92DF927B
:10034000EF92FF920F931F93CF93DF93CDB7DEB75A
:100350002C970FB6F894DEBF0FBECDBF6B017C01AA
:10036000672B682B692B19F480E30E94600100E081
:1003700010E016C0C701B6012AE030E040E050E0CE
:100380000E949705E1E0F0E0EC0FFD1FE00FF11F88
:10039000605D6083C22ED32EE42EF52E0F5F1F4FBB
:1003A000C114D104E104F10429F70BC00150110973
:1003B000E1E0F0E0EC0FFD1FE00FF11F80810E94F3
:1003C00060011016110694F32C960FB6F894DEBF58
:1003D0000FBECDBFDF91CF911F910F91FF90EF9096
:1003E000DF90CF9008950E943D010E94390160E0A6
:1003F00080E00E9422010E9459000E9493000E9406
:10040000B400A0E0B0E080937C0090937D00A093C6
:100410007E00B0937F0060E081E00E94220180E6D0
:1004200090E00E9475016AE081E00E9422016091E3
:100430007C0070917D0080917E0090917F000E94F1
:100440009E012FE382E49FE0215080409040E1F73D
:1004500000C000000E947500A0E0B0E08093800022
:1004600090938100A0938200B093830060E082E0CB
:100470000E94220185E690E00E9475016AE082E018
:100480000E94220160918000709181008091820021
:10049000909183000E949E01B2CFDB01482F50E073
:1004A0004830510508F043C0FA01E65DFF4F0C9457
:1004B000B90587B187B9B0936D00A0936C0037C0C0
:1004C00087B1816087B9B0936F00A0936E002FC091
:1004D00087B1826087B9B0937100A093700027C084
:1004E00087B1836087B9B0937300A09372001FC077
:1004F00087B1846087B9B0937500A093740017C06A
:1005000087B1856087B9B0937700A09376000FC05C
:1005100087B1866087B9B0937900A093780007C04F
:1005200087B1876087B9B0937B00A0937A0097B1B9
:100530008C91892B87B997B111968C911197892B42
:1005400087B996B112968C911297892B86B996B17C
:1005500013968C911397892B86B996B114968C912A
:10056000892B86B90895E82F86B1806886B986B14F
:10057000806486B98E2F90E08830910560F5FC018B
:10058000EE5CFF4F0C94B90570936D0060936C00A6
:1005900022C070936F0060936E001DC07093710055
:1005A0006093700018C0709373006093720013C062
:1005B00070937500609374000EC070937700609321
:1005C000760009C0709379006093780004C070933E
:1005D0007B0060937A00349BFECFFB0181818032E7
:1005E00029F484B185B184B195B10895811105C014
:1005F00084B185B184B195B1089508954423B9F1CA
:10060000413009F06BC0813089F028F08230C9F0A8
:10061000833011F108952AB381E090E002C0880F81
:10062000991F6A95E2F7822B8ABB089527B381E070
:1006300090E002C0880F991F6A95E2F7822B87BB72
:10064000089524B381E090E002C0880F991F6A9555
:10065000E2F7822B84BB089521B381E090E002C0D1
:10066000880F991F6A95E2F7822B81BB089581302C
:1006700091F028F08230D9F0833029F108952AB31F
:1006800081E090E002C0880F991F6A95E2F780959B
:1006900082238ABB089527B381E090E002C0880FCF
:1006A000991F6A95E2F78095822387BB089524B34A
:1006B00081E090E002C0880F991F6A95E2F780956B
:1006C000822384BB089521B381E090E002C0880FAB
:1006D000991F6A95E2F78095822381BB0895442390
:1006E000B9F1413009F06BC0813089F028F08230D7
:1006F000C9F0833011F108952BB381E090E002C07E
:10070000880F991F6A95E2F7822B8BBB089528B357
:1007100081E090E002C0880F991F6A95E2F7822B72
:1007200088BB089525B381E090E002C0880F991F2F
:100730006A95E2F7822B85BB089522B381E090E0B1
:1007400002C0880F991F6A95E2F7822B82BB089539
:10075000813091F028F08230D9F0833029F108956A
:100760002BB381E090E002C0880F991F6A95E2F7F1
:10077000809582238BBB089528B381E090E002C06E
:10078000880F991F6A95E2F78095822388BB0895A8
:1007900025B381E090E002C0880F991F6A95E2F7C7
:1007A0008095822385BB089522B381E090E002C04A
:1007B000880F991F6A95E2F78095822382BB08957E
:1007C0001F920F920FB60F9211242F933F934F93C6
:1007D0005F936F937F938F939F93AF93BF93EF93A9
:1007E000FF934FEF64E080E00E94FE0241E064E08E
:1007F00080E00E946F03FF91EF91BF91AF919F91B5
:100800008F917F916F915F914F913F912F910F90B9
:100810000FBE0F901F9018951F920F920FB60F9258
:1008200011242F933F934F935F936F937F938F93F5
:100830009F93AF93BF93EF93FF9340E064E080E01A
:100840000E946F032FE986E891E02150804090409C
:10085000E1F700C0000040E063E080E00E946F0329
:10086000FF91EF91BF91AF919F918F917F916F9188
:100870005F914F913F912F910F900FBE0F901F905E
:1008800018951F920F920FB60F9211242F933F933A
:100890004F935F936F937F938F939F93AF93BF9388
:1008A000EF93FF934FEF63E080E00E94FE0241E090
:1008B00063E080E00E946F03FF91EF91BF91AF91E1
:1008C0009F918F917F916F915F914F913F912F9168
:1008D0000F900FBE0F901F9018950E94090588F089
:1008E0009F5798F0B92F9927B751B0F0E1F0660FF4
:1008F000771F881F991F1AF0BA95C9F714C0B13035
:1009000091F00E942305B1E008950C942305672F10
:10091000782F8827B85F39F0B93FCCF38695779563
:100920006795B395D9F73EF490958095709561954C
:100930007F4F8F4F9F4F0895E89409C097FB3EF477
:1009400090958095709561957F4F8F4F9F4F99231C
:10095000A9F0F92F96E9BB279395F695879577959A
:100960006795B795F111F8CFFAF4BB0F11F460FF5A
:100970001BC06F5F7F4F8F4F9F4F16C0882311F0B2
:1009800096E911C0772321F09EE8872F762F05C0C6
:10099000662371F096E8862F70E060E02AF09A9561
:1009A000660F771F881FDAF7880F9695879597F956
:1009B000089597F99F6780E870E060E008959FEFE1
:1009C00080EC089500240A941616170618060906E6
:1009D000089500240A9412161306140605060895B5
:1009E000092E0394000C11F4882352F0BB0F40F43D
:1009F000BF2B11F460FF04C06F5F7F4F8F4F9F4F7D
:100A0000089557FD9058440F551F59F05F3F71F0FE
:100A10004795880F97FB991F61F09F3F79F0879565
:100A20000895121613061406551FF2CF4695F1DFEE
:100A300008C0161617061806991FF1CF869571057E
:100A4000610508940895E894BB2766277727CB01B2
:100A500097F908950E943D050C94F0040E94E20469
:100A600038F00E94E90420F0952311F00C94D90489
:100A70000C94DF0411240C9424050E94010570F3EA
:100A8000959FC1F3950F50E0551F629FF001729F33
:100A9000BB27F00DB11D639FAA27F00DB11DAA1F42
:100AA000649F6627B00DA11D661F829F2227B00D8F
:100AB000A11D621F739FB00DA11D621F839FA00D1A
:100AC000611D221F749F3327A00D611D231F849F6A
:100AD000600D211D822F762F6A2F11249F575040C1
:100AE0009AF0F1F088234AF0EE0FFF1FBB1F661F3C
:100AF000771F881F91505040A9F79E3F510580F005
:100B00000C94D9040C9424055F3FE4F3983ED4F38D
:100B1000869577956795B795F795E7959F5FC1F7A8
:100B2000FE2B880F911D9695879597F90895A1E260
:100B30001A2EAA1BBB1BFD010DC0AA1FBB1FEE1F57
:100B4000FF1FA217B307E407F50720F0A21BB30BA2
:100B5000E40BF50B661F771F881F991F1A9469F71E
:100B600060957095809590959B01AC01BD01CF017A
:100B70000895EE0FFF1F0590F491E02D0994A29FB8
:100B8000B001B39FC001A39F700D811D1124911D61
:100B9000B29F700D811D1124911D0895F894FFCF0F
:0C0BA00074656D70006C6567687400007F
:00000001FF
