:020000040800F2
:1000000000280020A5020008F5020008F5020008FB
:10001000F5020008F5020008F502000800000000E3
:10002000000000000000000000000000F5020008D1
:10003000F502000800000000F5020008F5020008C3
:10004000F5020008F5020008F5020008F5020008B4
:10005000F5020008F5020008F90200081D03000877
:10006000410300086503000889030008F502000841
:10007000F5020008F5020008F5020008F502000884
:10008000F5020008F5020008F5020008F502000874
:10009000F5020008F5020008F5020008AD030008AB
:1000A000F5020008F5020008F5020008F502000854
:1000B000F5020008F5020008F5020008F502000844
:1000C000F5020008F5020008F5020008A50C00087A
:1000D000650D0008A9110008BD110008D111000824
:1000E00055040008F502000800000000F5020008B1
:1000F000F5020008F5020008F5020008F502000804
:10010000F5020008F5020008F5020008F5020008F3
:10011000F5020008F5020008F5020008F5020008E3
:10012000F5020008F5020008F5020008F5020008D3
:1001300010B5054C237833B9044B13B10448AFF321
:1001400000800123237010BD00000020000000008B
:100150002C12000808B5034B1BB103490348AFF349
:10016000008008BD00000000040000202C120008E0
:1001700080B500AF00220D490D4800F063FF00225A
:100180000A490B4800F022FF00221021094800F024
:1001900032FB00220549084800F05AFD01221021D7
:1001A000044800F028FB00BF80BD00BF30000020E5
:1001B00000380140000801400030014080B400AF29
:1001C0000A4B9B69094A43F004039361074B9B69FF
:1001D000064A43F008039361044B9B69034A43F0CA
:1001E0000103936100BFBD4680BC70470010024010
:1001F00080B58CB000AFFFF7E1FF4FF4E1333B6215
:10020000002387F82430202387F82830214BFB6215
:10021000002387F82530002387F827300C233B770D
:10022000002387F826301C4800F058FF07F11C0314
:100230001946194800F0F6FD1023BB820123FB810B
:100240000223BB8100233B8100237B810023BB80F1
:100250000423FB804FF440737B8200233B82002306
:10026000BB613B1D19460D4800F038FB0B4800F000
:10027000CFFB10233B800423BB700123FB703B4664
:100280001946074800F000FA01221021044800F046
:10029000B2FAFEE771010008003801400030014069
:1002A000000801400D488546AFF300800C480D4919
:1002B0000D4A002302E0D458C4500433C4188C42C1
:1002C000F9D30A4A0A4C002301E013600432A24227
:1002D000FBD300F087FFFFF78BFFFEE7002800202D
:1002E00000000020000000206C1200080000002028
:1002F00070000020FEE7000080B500AF054B5B6991
:10030000044A43F001035361034B1B68984700BF45
:1003100080BD00BF000401403400002080B500AF64
:10032000054B5B69044A43F002035361034B5B686E
:10033000984700BF80BD00BF00040140340000208A
:1003400080B500AF054B5B69044A43F00403536179
:10035000034B9B68984700BF80BD00BF000401406D
:100360003400002080B500AF054B5B69044A43F0C0
:1003700008035361034BDB68984700BF80BD00BF93
:10038000000401403400002080B500AF054B5B69DC
:10039000044A43F010035361034B1B69984700BFA5
:1003A00080BD00BF000401403400002080B500AFD4
:1003B000264B5B6903F02003002B08D0234B5B69BD
:1003C000224A43F020035361214B5B6998471F4B3E
:1003D0005B6903F04003002B08D01C4B5B691B4A90
:1003E00043F0400353611A4B9B699847174B5B6975
:1003F00003F08003002B08D0144B5B69134A43F0D1
:1004000080035361124BDB699847104B5B6903F41F
:100410008073002B08D00D4B5B690C4A43F480734A
:1004200053610B4B1B6A9847084B5B6903F40073DD
:10043000002B08D0054B5B69044A43F400735361F9
:10044000034B5B6A984700BF80BD00BF00040140BA
:100450003400002080B500AF2D4B5B6903F480634E
:10046000002B08D02A4B5B69294A43F4806353610F
:10047000284B9B6A9847264B5B6903F40063002B6B
:1004800008D0234B5B69224A43F400635361214B3C
:10049000DB6A98471E4B5B6903F48053002B08D03E
:1004A0001B4B5B691A4A43F480535361194B1B6B16
:1004B0009847174B5B6903F40053002B08D0144B8B
:1004C0005B69134A43F400535361124B5B6B9847CB
:1004D0000F4B5B6903F48043002B08D00C4B5B6926
:1004E0000B4A43F4804353610A4B9B6B9847084B7C
:1004F0005B6903F40043002B08D0054B5B69044A99
:1005000043F400435361034BDB6B984700BF80BD4E
:10051000000401403400002080B483B000AF0346E3
:10052000FB80FB88B3F5004F00F0A580B3F5004FCA
:1005300000F3A380B3F5804F00F09B80B3F5804FAC
:1005400000F39B80B3F5005F00F09180B3F5005F8E
:1005500000F39380B3F5805F00F08780B3F5805F90
:1005600000F38B80B3F5006F7DD0B3F5006F00F31F
:100570008480B3F5806F74D0B3F5806F7DDCB3F504
:10058000007F6CD0B3F5007F77DCB3F5807F64D05B
:10059000B3F5807F71DC802B5DD0802B6DDC202B50
:1005A00048DC002B69DD013B1F2B66D801A252F805
:1005B00023F000BF3B0600083F0600087B0600084A
:1005C000430600087B0600087B0600087B0600083F
:1005D000470600087B0600087B0600087B0600082B
:1005E0007B0600087B0600087B0600087B060008E7
:1005F0004B0600087B0600087B0600087B06000807
:100600007B0600087B0600087B0600087B060008C6
:100610007B0600087B0600087B0600087B060008B6
:100620007B0600087B0600087B0600087B060008A6
:100630004F060008402B0CD01FE000231FE00423CE
:100640001DE008231BE00C2319E0102317E01423FE
:1006500015E0182313E01C2311E000230FE004230E
:100660000DE008230BE00C2309E0102307E014231E
:1006700005E0182303E01C2301E000BF0023184617
:100680000C37BD4680BC704790B585B000AF786030
:1006900039600023BB600023FB733B681B88FF2B82
:1006A00001D87B6801E07B680433BB603B681B8832
:1006B0001846FFF731FF03461A460F239340DA43EB
:1006C000BB681B681A40BB681A603B689B78072BA5
:1006D0000BD03B689B78062B07D03B689B78052B9B
:1006E00003D03B689B78042B1CD13B689B78043B70
:1006F0009B005AB23B68DB785BB213435BB2DBB260
:1007000003F00F03FB73FC7B3B681B881846FFF765
:1007100003FF034604FA03F2BB681B681A43BB6875
:100720001A6056E03B689B78012B03D03B689B78AE
:10073000002B15D13B689B789B00DBB203F00F03C5
:10074000FB73FC7B3B681B881846FFF7E5FE0346FE
:1007500004FA03F2BB681B681A43BB681A6038E0EE
:100760003B689B78082B10D10023FB73FC7B3B6814
:100770001B881846FFF7D0FE034604FA03F2BB6855
:100780001B681A43BB681A6023E00823FB73FC7BD9
:100790003B681B881846FFF7BFFE034604FA03F2C6
:1007A000BB681B681A43BB681A603B689B78022BC6
:1007B00007D17B68DB683A6812881A437B68DA6085
:1007C00007E07B68DB683A681288D2431A407B688E
:1007D000DA60FC7B3B681B881846FFF79DFE0346EA
:1007E00004FA03F2BB681B681A43BB681A6000BFB7
:1007F0001437BD4690BD80B483B000AF78600B461F
:100800007B8013463B803B88002B03D07A887B6833
:100810001A6102E07A887B685A6100BF0C37BD46D6
:1008200080BC704780B400AF0B4B5B689B0803F043
:100830000303022B0AD0022B0AD8002B02D0012B73
:1008400002D005E0054B03E0054B01E0044BFFE758
:100850001846BD4680BC70470010024000127A0066
:100860000024F40080B500AFFFF7DCFF0246054B23
:100870005B681B0903F00F030349CB5C22FA03F307
:10088000184680BD001002405412000880B500AF29
:10089000FFF7E8FF0246054B5B681B0A03F00703FE
:1008A0000349CB5C22FA03F3184680BD00100240D6
:1008B0004412000880B500AFFFF7D4FF0246054B95
:1008C0005B68DB0A03F007030349CB5C22FA03F3FE
:1008D000184680BD001002404C12000880B485B05C
:1008E00000AF786039600023FB810023BB817B6807
:1008F000424A934209D1424A3B681360414B9B698B
:10090000404A43F4805393610CE07B683E4A934233
:1009100008D13B4A3B6853603A4BDB69394A43F4A0
:100920008043D361FB8943F04003FB813B685A88D5
:10093000FB891343FB813B681A88FB891343FB81C6
:100940003B689A88FB891343FB813B681A89FB89C2
:100950001343FB813B685A89FB891343FB813B6846
:10096000DA88FB891343FB813B681A8AFB891343AE
:10097000FB813B689B89002B19D03B689A89BB8916
:100980001343BB817B681D4A934206D11F4B1B68F2
:100990001E4A43F00803136009E07B681A4A934239
:1009A00005D11A4B1B68194A43F0100313603B68CA
:1009B000DB89042B05D13B68DA89BB891343BB81F2
:1009C00010E03B68DB894FF6FB72934205D13B6830
:1009D000DA89BB891340BB8104E03B68DA89FB8973
:1009E0001343FB81FA897B681A60BA897B685A6075
:1009F00000BF1437BD4680BC704700BF00300140C7
:100A00001C000020001002400038004004E100E01B
:100A100080B584B000AF78607B68884A93427ED10D
:100A2000874B1B685B88042B43D1854B1B68DB8994
:100A3000042B0ED04FF6FB72934217D11023BB81CB
:100A40000123BB7307F10C0319467E48FFF71CFE18
:100A50000CE01023BB810623BB730123FB7307F15A
:100A60000C0319467748FFF70FFE00BF2023BB8118
:100A70000623BB730123FB7307F10C03194671486E
:100A8000FFF702FE4023BB810123BB7307F10C0378
:100A900019466C48FFF7F8FD8023BB810623BB7322
:100AA0000123FB7307F10C0319466648FFF7ECFDC1
:100AB000C0E0634B1B685B88002B40F0BB80604B41
:100AC0001B68DB89012B09D11023BB810123BB7378
:100AD00007F10C0319465B48FFF7D6FD2023BB81C5
:100AE0000123BB7307F10C0319465648FFF7CCFDF1
:100AF0004023BB810623BB730123FB7307F10C0367
:100B000019465048FFF7C0FD8023BB810123BB730A
:100B100007F10C0319464B48FFF7B6FD8AE07B68E6
:100B2000494A934240F08680454B5B685B88042BC2
:100B300048D1434B5B68DB89042B0FD04FF6FB7227
:100B4000934219D14FF48053BB810123BB7307F14A
:100B50000C0319463D48FFF797FD0DE04FF4805315
:100B6000BB810623BB730123FB7307F10C031946FA
:100B70003648FFF789FD00BF4FF40053BB810623C1
:100B8000BB730123FB7307F10C0319462F48FFF7D2
:100B90007BFD4FF48043BB810123BB7307F10C0342
:100BA00019462A48FFF770FD4FF40043BB81062326
:100BB000BB730123FB7307F10C0319462348FFF7AE
:100BC00063FD37E01E4B5B685B88002B32D11C4B0A
:100BD0005B68DB89012B0AD14FF48053BB81012371
:100BE000BB7307F10C0319461848FFF74DFD4FF48E
:100BF0000053BB810123BB7307F10C031946134853
:100C0000FFF742FD4FF48043BB810623BB730123F2
:100C1000FB7307F10C0319460C48FFF735FD4FF441
:100C20000043BB810123BB7307F10C03194607483E
:100C3000FFF72AFD00BF1037BD4680BD00300140E0
:100C40001C0000200008014000380040000C01405A
:100C500080B485B000AFF860B9601346FB71FB79D2
:100C6000002B06D100BFFB689B6803F00203002B3A
:100C7000F9D0BB681B881A46FB68DA60FB79002B49
:100C800006D100BFFB689B6803F00103002BF9D07D
:100C9000FB68DB689AB2BB681A8000BF1437BD4698
:100CA00080BC704780B582B000AF2C4B9B6803F0CE
:100CB0000103DAB23B7962F300033B71274B9B6877
:100CC0005B0803F00103DAB23B7962F341033B7145
:100CD000224B9B689B0803F00103DAB23B7962F375
:100CE00082033B711D4B9B68DB0803F00103DAB202
:100CF0003B7962F3C3033B71184B9B681B0903F0FC
:100D00000103DAB23B7962F304133B71134B9B6826
:100D10005B0903F00103DAB23B7962F345133B71DF
:100D20000E4B9B689B0903F00103DAB23B7962F337
:100D300086133B71094B9B68DB0903F00103DAB2B0
:100D40003B7962F3C7133B71054B1B685B693879CC
:100D5000984700BF0837BD4680BD00BF0030014046
:100D60001C00002080B582B000AF2C4B9B6803F0C4
:100D70000103DAB23B7962F300033B71274B9B68B6
:100D80005B0803F00103DAB23B7962F341033B7184
:100D9000224B9B689B0803F00103DAB23B7962F3B4
:100DA00082033B711D4B9B68DB0803F00103DAB241
:100DB0003B7962F3C3033B71184B9B681B0903F03B
:100DC0000103DAB23B7962F304133B71134B9B6866
:100DD0005B0903F00103DAB23B7962F345133B711F
:100DE0000E4B9B689B0903F00103DAB23B7962F377
:100DF00086133B71094B9B68DB0903F00103DAB2F0
:100E00003B7962F3C7133B71054B5B685B693879CB
:100E1000984700BF0837BD4680BD00BF003800407E
:100E20001C00002080B584B000AF786039607B681A
:100E30005F4A934209D15F4B9B695E4A43F480430A
:100E400093615D4A3B6813601AE07B685B4A93429A
:100E500009D1584BDB69574A43F40033D361564AF2
:100E60003B6853600CE07B68554A934208D1514B74
:100E7000DB69504A43F48023D3614F4A3B68936057
:100E80007B68DB6843F400527B68DA607B68DB6870
:100E90003A6812781A437B68DA607B68DB683A68E4
:100EA000127A1A437B68DA607B68DB683A68527AA8
:100EB0001A437B68DA607B681B693A68927A1A4346
:100EC0007B681A617B685B693A68D27A1A437B68EF
:100ED0005A617B68364A934203D1FFF7EBFCF86016
:100EE0000EE07B68354A934203D1FFF7CFFCF860F0
:100EF00006E07B68324A934202D1FFF7C7FCF860F4
:100F00003B685B681B01FA68B2FBF3F31901FA68EE
:100F100013469B0013449A001A443B685B689B008D
:100F2000B2FBF3F23B685B681B01F868B0FBF3F3BC
:100F3000642000FB03F3D31A1B01224AA2FB032304
:100F40005B0903F00F030B43BB607B68BA689A60D0
:100F50003B681B7B002B26D07B68DB683A68127BE2
:100F60001A437B68DA607B68114A934206D1164BBC
:100F70001B68154A43F02003136014E07B680F4A96
:100F8000934206D1104B1B680F4A43F04003136095
:100F900009E07B680A4A934205D10B4B1B680A4A59
:100FA00043F08003136000BF1037BD4680BD00BF13
:100FB000003801400010024024000020004400409E
:100FC000004800401F85EB5104E100E080B487B089
:100FD00000AFF860B9601346FB7100237B61FB68CA
:100FE000144A934203D1144B1B687B610EE0FB68EB
:100FF000124A934203D1104B5B687B6106E0FB68A9
:101000000F4A934202D10C4B9B687B61FB79012B09
:1010100006D100BFFB681B6803F08003002BF9D0EA
:10102000BB681B88DAB2FB685A6000BF1C37BD463C
:1010300080BC70470038014024000020004400407C
:101040000048004080B487B000AFF860B960134634
:10105000FB7100237B61FB681C4A934203D11C4B4C
:101060001B687B610EE0FB681A4A934203D1184B60
:101070005B687B6106E0FB68174A934202D1144B20
:101080009B687B61FB79012B06D100BFFB681B6865
:1010900003F02003002BF9D07B695B7A002B07D18A
:1010A000FB685B689BB2DBB29AB2BB681A8007E050
:1010B000FB685B689BB203F07F039AB2BB681A803F
:1010C00000BF1C37BD4680BC704700BF00380140E0
:1010D00024000020004400400048004080B584B057
:1010E00000AF78607B682B4A934218D14FF40073AD
:1010F000BB810623BB730123FB7307F10C03194665
:101100002548FFF7C1FA4FF48063BB810123BB730D
:1011100007F10C0319462048FFF7B6FA36E07B6862
:101120001E4A934216D10423BB810623BB730123BD
:10113000FB7307F10C0319461748FFF7A5FA0823BC
:10114000BB810123BB7307F10C0319461248FFF75B
:101150009BFA1BE07B68124A934217D14FF48063DD
:10116000BB810623BB730123FB7307F10C031946F4
:101170000C48FFF789FA4FF40063BB810123BB736E
:1011800007F10C0319460748FFF77EFA00BF103736
:10119000BD4680BD003801400008014000440040C9
:1011A00000480040000C014080B500AF024B1B68B6
:1011B0001B69984700BF80BD2400002080B500AFA8
:1011C000024B5B681B69984700BF80BD240000206C
:1011D00080B500AF024B9B681B69984700BF80BD7C
:1011E0002400002070B500260C4D0D4C641BA4108B
:1011F000A64209D100F01AF800260A4D0A4C641BD9
:10120000A410A64205D170BD55F8043B984701369D
:10121000EEE755F8043B98470136F2E76412000800
:10122000641200086412000868120008F8B500BFD4
:10123000F8BC08BC9E467047F8B500BFF8BC08BCB7
:041240009E4670470F
:101244000000000001020304000000000102030486
:101254000000000000000000010203040607080962
:041264005501000828
:041268003101000848
:04000005080002A548
:00000001FF
