:100000000C942A000C948F010C94F0010C94BB0109
:100010000C9447000C9447000C9447000C94470044
:100020000C9447000C9447000C9447000C94470034
:100030000C9447000C9447000C9447000C94470024
:100040000C9447000C9447000C9447000C94470014
:100050000C94470011241FBECFE5D8E0DEBFCDBF12
:1000600010E0A0E6B0E0EEE4F4E002C005900D92EE
:10007000A036B107D9F720E0A0E6B0E001C01D929C
:10008000A036B207E1F70E9449000C9425020C94B7
:10009000000041E060E080E00E94790041E061E022
:1000A00080E00E94790041E060E080E00E94EA0088
:1000B0002FE18FEB92E0215080409040E1F700C0AB
:1000C000000040E060E080E00E94EA0087E00E94DB
:1000D0001C0261E080E00E945B012FE784E89EE162
:1000E000215080409040E1F700C000000E942102B2
:1000F000EDCF4423B9F1413009F06BC0813089F074
:1001000028F08230C9F0833011F108952AB381E0DC
:1001100090E002C0880F991F6A95E2F7822B8ABB94
:10012000089527B381E090E002C0880F991F6A9577
:10013000E2F7822B87BB089524B381E090E002C0F0
:10014000880F991F6A95E2F7822B84BB089521B32B
:1001500081E090E002C0880F991F6A95E2F7822B38
:1001600081BB0895813091F028F08230D9F083303E
:1001700029F108952AB381E090E002C0880F991F09
:100180006A95E2F7809582238ABB089527B381E0C0
:1001900090E002C0880F991F6A95E2F7809582234C
:1001A00087BB089524B381E090E002C0880F991FB7
:1001B0006A95E2F78095822384BB089521B381E09C
:1001C00090E002C0880F991F6A95E2F7809582231C
:1001D00081BB08954423B9F1413009F06BC08130EF
:1001E00089F028F08230C9F0833011F108952BB3E3
:1001F00081E090E002C0880F991F6A95E2F7822B98
:100200008BBB089528B381E090E002C0880F991F4E
:100210006A95E2F7822B88BB089525B381E090E0D0
:1002200002C0880F991F6A95E2F7822B85BB08955B
:1002300022B381E090E002C0880F991F6A95E2F72F
:10024000822B82BB0895813091F028F08230D9F062
:10025000833029F108952BB381E090E002C0880F2C
:10026000991F6A95E2F7809582238BBB089528B386
:1002700081E090E002C0880F991F6A95E2F78095AF
:10028000822388BB089525B381E090E002C0880FE7
:10029000991F6A95E2F78095822385BB089522B362
:1002A00081E090E002C0880F991F6A95E2F780957F
:1002B000822382BB0895813089F028F08230C9F012
:1002C000833011F108952BB381E090E002C0880FD4
:1002D000991F6A95E2F782278BBB089528B381E0C6
:1002E00090E002C0880F991F6A95E2F7822788BBC9
:1002F000089525B381E090E002C0880F991F6A95A8
:10030000E2F7822785BB089522B381E090E002C026
:10031000880F991F6A95E2F7822782BB08951F9282
:100320000F920FB60F9211242F933F934F935F9329
:100330006F937F938F939F93AF93BF93EF93FF93AD
:100340004FEF64E080E00E94790041E064E080E0EB
:100350000E94EA00FF91EF91BF91AF919F918F9121
:100360007F916F915F914F913F912F910F900FBEB1
:100370000F901F9018951F920F920FB60F92112495
:100380002F933F934F935F936F937F938F939F939D
:10039000AF93BF93EF93FF9340E064E080E00E944F
:1003A000EA002FE986E891E0215080409040E1F793
:1003B00000C0000040E063E080E00E94EA00FF919E
:1003C000EF91BF91AF919F918F917F916F915F91CD
:1003D0004F913F912F910F900FBE0F901F90189546
:1003E0001F920F920FB60F9211242F933F934F93AA
:1003F0005F936F937F938F939F93AF93BF93EF938D
:10040000FF934FEF63E080E00E94790041E063E0FA
:1004100080E00E94EA00FF91EF91BF91AF919F9120
:100420008F917F916F915F914F913F912F910F909D
:100430000FBE0F901F90189581BD81B5886081BD5A
:0E044000089588E181BD11BC0895F894FFCFA6
:00000001FF
