:100000000C942A000C9434000C9434000C943400AA
:100010000C9434000C9434000C9434000C94340090
:100020000C9434000C9434000C9434000C94340080
:100030000C9434000C9434000C9434000C94340070
:100040000C9434000C9434000C9434000C94340060
:100050000C94340011241FBECFE5D8E0DEBFCDBF25
:100060000E944E000C9462000C9400008DB18061DF
:100070008DB987B3806B87BB87B38F7B87BB8DB10F
:1000800080648DB98DB181608DB98DB18D7F8DB951
:1000900008958FB9779BFECF8FB108950E943600E7
:1000A0008FEF8ABBC0E08C2F0E9449008BBB2FE3EF
:1000B0008DE093E0215080409040E1F700C00000C7
:0800C000CF5FF1CFF894FFCFF0
:00000001FF
